S01200004C45444D6172717565652E737265636D
S11300000C9472000C947E000C947E000C947E0080
S11300100C947E000C947E000C947E000C947E0064
S11300200C947E000C947E000C947E000C947E0054
S11300300C947E000C947E000C947E000C947E0044
S11300400C947E000C947E000C947E000C947E0034
S11300500C947E000C947E000C947E000C947E0024
S11300600C947E000C947E000C947E000C947E0014
S11300700C947E000C947E000C947E000C947E0004
S11300800C947E000C947E000C947E000C947E00F4
S11300900C947E000C947E000C947E000C947E00E4
S11300A00C947E000C947E000C947E000C947E00D4
S11300B00C947E000C947E000C947E000C947E00C4
S11300C00C947E000C947E000C947E000C947E00B4
S11300D00C947E000C947E000C947E000C947E00A4
S11300E00C947E0011241FBECFEFD1E2DEBFCDBF42
S11300F000E00CBF0E9495000C9417010C940000C2
S11301008FEF80BB8093070181B987B997E094B9D9
S113011080930A0181BB81B38093080181B382B9C2
S113012081B388B981B385B908950E948000C1E084
S1130130D0E002C0C1E0D0E0BE01882777FD809501
S1130140982F0E94B80020E030E040E852E40E947A
S1130150B20018167CF38C2F809580930B01CC0F82
S1130160DD1FEACF40D008F481E00895E89409C087
S113017097FB3EF490958095709561957F4F8F4FD6
S11301809F4F9923A9F0F92F96E9BB279395F695EC
S1130190879577956795B795F111F8CFFAF4BB0F6A
S11301A011F460FF1BC06F5F7F4F8F4F9F4F16C0CE
S11301B0882311F096E911C0772321F09EE8872F58
S11301C0762F05C0662371F096E8862F70E060E014
S11301D02AF09A95660F771F881FDAF7880F96958D
S11301E0879597F90895990F0008550FAA0BE0E831
S11301F0FEEF16161706E807F907C0F012161306E5
S1130200E407F50798F0621B730B840B950B39F424
S11302100A2661F0232B242B252B21F408950A268A
S113022009F4A140A6958FEF811D811D0895F894CE
S1050230FFCFFA
S9030000FC
